:020000040800F2
:1000000000050020551D0008751D0008771D00081B
:1000100000000000000000000000000000000000E0
:10002000000000000000000000000000791D000832
:1000300000000000000000007B1D00087D1D00087E
:100040005B0D000800000000EF18000837190008D9
:100050008B1C0008031D00080F1D00089D1D0008D3
:10006000000000009F1D0008A11D0008A31D00083E
:10007000A51D0008A71D0008A91D0008000000001C
:10008000AB1D0008AD1D0008AF1D0008B11D000824
:10009000B31D0008B51D0008B71D0008B91D0008F4
:1000A000BB1D0008BD1D0008BF1D0008C11D0008C4
:1000B000C31D0008C51D000800000000C71D000882
:1000C000F8B5040001D10120F2BD82277F00002590
:1000D000606A002804D16068B84203D0E56101E09D
:1000E00025616561A56226005C367078002803D121
:1000F0003570200000F0A1FC0220707020680168BB
:10010000402291430160E368E022D200F020000128
:10011000934203D90021834204D104E080214901A4
:10012000934200D0A562012263681F40BC46A768C5
:1001300084231B023B4067463B439C46277C0223AB
:100140001F4063461F43636913403B439C46A769B6
:1001500053021F4063461F43BC46277F38233B4062
:1001600067463B439C462023E75C80231F40634651
:100170001F43BC46A36A57033B4067463B4327687F
:100180003B60A3691F0C04231F40BC462423E35C8F
:1001900010273B4067463B439C463423E75C0823DB
:1001A0001F4063461F43E3681840384301432068FB
:1001B00041602068C169754B0B40C3617560727006
:1001C0000020F2BDFCB583B004000E0000274430CF
:1001D000007E012801D10220D6E015000120210077
:1001E0004431087600F0A6FC02902800210044313A
:1001F000497E012901D00227C1E0002E00D029004C
:1002000000D1B8E0032122004432517600212200BF
:100210004432D161A663A587E58721644422A152B7
:1002200022004432518022004432D1602200443204
:100230009160A16880221202914209D121680A6866
:1002400040239A430A6021680A681B0213430B602B
:10025000216840220B68134002D10B681A430A60E0
:1002600061680022D2430192120C6B461A80049DF1
:10027000E268AF4B9A4234D3002901D001280BD158
:10028000A06B00882168C860A06B801CA063E08F11
:10029000694609884018E087029E0AE0A16B098838
:1002A000C160A06B801CA063E08F6946098840187C
:1002B000E087E08F002844D0206881688907EDD46A
:1002C00000F038FC801BA84208D301988542F0D08A
:1002D0000327012021004431487650E0002DE8D169
:1002E000F6E7002901D001280BD1A06B0078216826
:1002F0000873A06B401CA063E08F69460988401812
:10030000E087029E0AE0A16B09780173A06B401C94
:10031000A063E08F694609884018E087E08F0028D5
:100320000FD0206881688907EDD400F003FC801BA2
:10033000A84203D301988542CAD1EFE7002DEDD141
:10034000C6E729003200200000F03CFB002803D063
:10035000202021004431C861A068002806D1009007
:100360002068C168009180680090009820004430A7
:10037000C169002901D0012701E001214176002057
:10038000210044310876380005B0F0BDFFF7FFFFCB
:10039000F8B584B0050000206C4620702C00443471
:1003A000607E012801D00220B7E004260291684651
:1003B0008280039368688221490088420DD1A86831
:1003C00000280AD166760398009068468388029ACE
:1003D0001146280000F0B0F8A8E0207E012801D1E5
:1003E0000220A3E00127277600F0A4FB0299002950
:1003F00003D069468988002902D16846077091E0D8
:1004000066760021E1610299296469468988218024
:100410006946898861800021A963A987E987A1606D
:10042000E1602A684249EB688B42536802D3694E07
:100430001E4001E0B6021E435660AA68FB039A42C2
:1004400009D12A6813684026B34313602A681368E9
:10045000384E1E4016602A68402316681E4002D19E
:100460001668334313600022D2430192120C6B468C
:100470005A80EA688A42039E22D207000AE0007B83
:10048000296C0870286C401C28646088694649887B
:10049000401860806088002832D028688168C907C9
:1004A000EDD400F047FBC01BB04206D30198864252
:1004B000F0D003206946087032E0002EEAD1F8E758
:1004C00007000AE0C068296C0880286C801C28643A
:1004D00060886946498840186080608800280FD08D
:1004E00028688168C907EDD400F024FBC01BB04226
:1004F00003D301988642DCD1EFE7002EEDD1D8E797
:10050000280031003A0000F021FA002801D0202014
:10051000E061E069002803D001206946087001E02D
:1005200001206076002020766846007805B0F0BD96
:1005300001070000FFBFFFFFF2B584B00400170001
:100540000120039000206946087020004430007E9E
:10055000012801D1022011E11D00012621004431B2
:100560000E7600F0E7FA029020004430417E280029
:1005700001290BD0626882235B009A4204D1A268F1
:10058000002A01D1042901D00220EAE004990029BF
:1005900003D0002F01D02A0002D168460670E7E0A0
:1005A00022004432537E042B01D0052353760023CE
:1005B000D361276455801580A163E587A587936083
:1005C000D36022686E49E3688B42536804D3014DBF
:1005D0001D4003E0FFEFFFFF35031D435560226818
:1005E000402315681D4002D115682B4313606368D2
:1005F000002201920A9AE5688D424ED3002B01D069
:10060000012809D1A06B00882168C860A06B801CFC
:10061000A063E08F401EE0870A92039E029DE08F58
:10062000002804D120004430408800284DD02168A3
:1006300054488A6892070ED5E28F002A0BD0002E0C
:1006400009D0A26B1288CA60A16B891CA163E18FDB
:100650000918E187019E21688A68D2070ED5220019
:1006600044325388002B09D0C968236C1980216C4F
:10067000891C2164518808185080012600F05AFA1C
:10068000401B0A998842CAD308460021C9438842C0
:10069000C5D003206946087066E0002B01D0012810
:1006A00009D1A06B007821680873A06B401CA0637F
:1006B000E08F401EE0870A92039E029DE08F002893
:1006C00004D1200044304088002836D021682D48CD
:1006D0008A6892070ED5E28F002A0BD0002E09D02F
:1006E000A26B12780A73A16B491CA163E18F0918F0
:1006F000E187019E216801228B6813400ED0230000
:1007000044335F88002F09D0097B266C3170216C3F
:10071000491C2164598808185880012600F00AFAFB
:10072000401B0A998842084604D30021C9438842E5
:10073000AFD1C3E70028C1D1ABE70A992A00200056
:1007400000F040F9002806D00120694608702020FA
:1007500021004431C86120004430C069002803D022
:1007600001206946087003E00120210044314876E9
:1007700000202100443108766846007805B0F0BDBD
:1007800001070000FFFF0000FEB582B006000A9CD2
:100790001D4600F0CFF9281A071900F0CBF9694976
:1007A00009684901090D7943009100240125019050
:1007B00006E00098002800D100270098401E009015
:1007C00030688068029901400298814201D101207D
:1007D00000E000206946097B884235D0049800215A
:1007E000C9438842ECD000F0A5F90199401AB842FB
:1007F00001D2002FDDD130684168E0229143416091
:1008000070688221490088420BD1B068E9038842B0
:1008100002D04909884204D13068016840229143DE
:1008200001606803B16A814208D131680A68464BA9
:1008300013400B6031680A681043086030005C3078
:1008400045700470032000E0002005B0F0BDFCB549
:1008500085B007000E000C9D00240020694608703A
:100860000699009100F066F90099081A4019009065
:1008700000F060F939680C31009A324B1B6823256F
:100880006B431B0D5A4301923D000296059F009E4B
:100890000490039106E00198002800D100260198F9
:1008A000401E01902868806802990140B94245D0F5
:1008B0000298C021C900884207D1002F05D10398B2
:1008C0000078694608706846007806980021C94398
:1008D0008842E7D000F02EF90499401AB04201D2C4
:1008E000002ED8D128684168E022914341606868B1
:1008F0008221490088420CD1A868802109028842DF
:1009000002D04909884204D12868016840229143F5
:10091000016080208001A96A814208D129680A68A3
:10092000094B13400B6029680A68104308602800CF
:100930005C30012141700470032000E0002007B00A
:10094000F0BD00000C000020FFDFFFFFFEB504003B
:1009500080273F02822676006068B0420AD1A068F4
:10096000B84202D07B09984204D120680368402530
:10097000AB43036001920291202501980090029BF5
:10098000002280212000FFF7FFFE002813D16068BD
:10099000B04215D1A068B84202D0690188420FD197
:1009A00001980090029B0022C021C9002000FFF79F
:1009B0004EFF002804D0206E054325660320FEBDAF
:1009C0000020FEBDF8B504000F001600202500969B
:1009D0003B000022C0214901FFF739FF002812D156
:1009E00000963B00002280212000FFF7CDFE00286A
:1009F00009D100963B000022C021C9002000FFF76A
:100A000026FF002803D0206E054325660320F2BD93
:100A100081B0012041490A6802430A600A68104017
:100A200000900098802040054A6802434A60496867
:100A300008400090009801B0704770B586B004007F
:100A400014220021684600F07BF82068344988426F
:100A500033D13448090C82680A43826082681140AD
:100A6000059105998021090302680A430260026822
:100A70001140059105998021C90202680A4302606C
:100A800000680140059105980C200090022601960F
:100A9000002402940325039501200490694622480E
:100AA00000F058F87002009001960294039505201A
:100AB000049069461D4800F04DF806B070BD10B5B1
:100AC00086B004001422002101A800F039F8206843
:100AD000174988421FD11349802080028A68024347
:100AE0008A608A6802400092009A0A6802430A609B
:100AF00009680840009000980C20019002200290A4
:100B000000200390032004900120059001A990206B
:100B1000C00500F01FF806B010BD0000181002401C
:100B2000003800401410024000080048000400484B
:100B30000044004001484068704700BF00000020AA
:100B400010B50400080011000200200000F0DEF8DB
:100B5000200010BDFFB500220F2302932CE00524D6
:100B600002E0644DA842FAD16D462D78AC40344382
:100B7000019D2C60604CA668DC4326404D68ED0268
:100B800000D51E435C4DAE60EE6826404F68BF0244
:100B900000D51E43EE606E6826404F68BF0300D547
:100BA0001E436E602E6834404E68F60302D5260060
:100BB0001C0034432C60521C0B681C00D44000D134
:100BC00091E0012494402340F5D055000327AF4025
:100BD000FE4301964E68B707BF0F012F03D0B6073B
:100BE000B60F022E0ED18768019E3E40CF68AF40FF
:100BF000374387604668A6434C68E706FF0F974077
:100C00003743476094006E4674700C79A407A40FB4
:100C1000032C26D0C468019E26408C68AC40344327
:100C2000C4600C79A407A40F022C1AD1D408A40024
:100C30000419266A03966E4677781C263E406F4656
:100C40003E70039EB446029F6E463678B7406646B5
:100C5000BE43B4460F696E463678B74066463743A2
:100C6000276207680324019E3E404F682740BC4628
:100C70002F006546BD40354305604D6826042E4073
:100C800099D001251D4E36682E431C4F3E603E46CE
:100C900036682E400196019E194E9708BF00F6193E
:100CA0000196019E366803966E4677780C263E4084
:100CB0006F463E70039EB446029F6E463678B7403C
:100CC0006646BE439027FF05B84201D100244BE79A
:100CD0000C4FB84201D1012446E70B4DA84200D089
:100CE0003FE7022440E7FFBD002A01D08161704741
:100CF00081627047000C0048000401401810024057
:100D00000800014000040048000800481206130AC9
:100D10001A43130C1A4300BF094205D0830705D0BC
:100D20000270401C491EF9D17047000013001039B1
:100D300006D330B41400150010393CC0FCD230BCCE
:100D4000490700D30CC000D504C0890002D302803B
:100D5000801C002900D502707047FEE738B50400FA
:100D600014D0250078356868002803D12870200049
:100D7000FFF7A5FE242068602068016801229143E6
:100D80000160200000F018F9012801D1012032BDD6
:100D9000606A002802D0200000F098F920684168BD
:100DA000084A0A40426020688168082291438160B5
:100DB000FFE72068016801220A430260200000F07A
:100DC000EDF932BDFFF7FFFFF1B584B01F00064615
:100DD0005036F06A202861D10C000FD0684602809E
:100DE000002A0BD00498806880214901884207D1ED
:100DF00004980069002803D1E00701D501204EE0E6
:100E0000002575632120F062FFF794FE010068461B
:100E1000008830806846008870803A0004988068B6
:100E200080235B01984209D104980069002805D10C
:100E30002500049F0192029104001AE02000F8E7C7
:100E400021780185641C11E001980090029B00222A
:100E50008021380000F00CFA00281BD13868002CE3
:100E6000EED12988C905C90D0185AD1C7088401EC9
:100E7000708070880028E7D13800029B01990091AA
:100E80000022402100F0F4F9002803D12020F06274
:100E9000002004E02020F062032000E0022005B0E2
:100EA000F0BDF1B584B01E0007465837B86A202857
:100EB0007DD10C000FD068460280002A0BD0049828
:100EC000806880214901884207D104980069002880
:100ED00003D1E00701D501206AE00025FD62222050
:100EE000B862BD60FFF726FE0100684600883880C2
:100EF00068460088788004988268FF2080235B0120
:100F00009A4205D1049A1269002A14D1294812E0A4
:100F10007F23002A04D1049A1269002A08D10AE02A
:100F200080204005824208D104980069002801D140
:100F3000BB8003E03F20B88000E0BD80BA88049801
:100F4000806880235B01984209D1049800690028D9
:100F500005D12500029601911600040012E0200040
:100F6000F8E7310001402170641C08E00498006833
:100F7000002C808CF5D1310001402980AD1C78888F
:100F8000401E7880788800280DD002980090019B40
:100F900000222021049800F06BF90028E6D02020E0
:100FA000B862032004E02020B862002000E00220A4
:100FB00005B0F0BDFF010000F8B5060000250024D3
:100FC00030680168744A0A40B168114332690A43C3
:100FD00071691143F2690A43026041689B4A0A4001
:100FE000F168114341608168994A0A40B16911432F
:100FF000326A0A4382601022964988420FD196488D
:1010000000688007800F13D0022806D003D303287E
:101010000FD102220DE004220BE0082209E08F49E3
:10102000884205D08E49884202D08E49884200D13C
:1010300000228D4F8D4880210902F3698B4221D116
:10104000002A06D0022A18D0042A18D0082A04D070
:1010500037E000F001FC010034D07268480051080C
:101060004018110000F028FC01001039B94228D2C4
:1010700007400007400F38431BE00100EDE700F098
:10108000D5FBE8E7002A06D0022A08D0042A13D0AC
:10109000082A14D015E000F0DFFB002812D0716898
:1010A0004A08801800F008FC01001039B94208D243
:1010B00080B23168C86005E000F0B8FBEDE70800D9
:1010C000EDE70124B566F5662000F2BD2421415C00
:1010D000C90706D501684A688B4B1340826A1A43D8
:1010E0004A602421415C890706D501684A68874B1C
:1010F0001340C26A1A434A602421415C490706D55D
:1011000001684A68824B1340026B1A434A602421EB
:10111000415C090706D501684A687E4B1340426B63
:101120001A434A602421415CC90606D501688A68D1
:10113000794B1340826B1A438A602421415C8906F3
:1011400006D501688A68134B1340C26B1A438A6044
:101150002421415C490611D501684A686F4B134050
:10116000026C1A434A60026C80235B039A4205D1E9
:101170004A686B4B1340426C1A434A602421415C1D
:10118000090606D501684A68664B1340806C18430F
:1011900048607047FFDFFFFFF369FFEFFEB5060011
:1011A000370078370024FC60FFF7C4FC019020254D
:1011B00030680068000717D55B480090019B00224B
:1011C0002904300000F054F800280DD0EFF310800F
:1011D000012181F3108831680A6880239A430A60EC
:1011E00080F310887D6026E030680068400725D5D0
:1011F0004D480090019B00226904300000F038F84F
:1012000000281BD0EFF31080012181F31088316892
:101210000A685E4B13400B6080F31088EFF3108078
:10122000012181F3108831688A6801239A438A601A
:1012300080F31088BD603C700320FEBD7D60BD6002
:10124000346674663C700020FEBD0000FFCFFFFFD7
:10125000FFF4FFFF0038014030100240004400401E
:1012600000480040004C0040F0FF000000127A00EF
:10127000FEB580273F01082400250600019168463D
:10128000027002933068C06901990140019881425F
:1012900001D1012000E0002069460978884231D15F
:1012A00008980021C9438842ECD0FFF743FC02991B
:1012B000401A0899814201D3002901D10320FEBDC3
:1012C000306800684007DDD53068C069204030686C
:1012D00003D1C0693840D5D009E00462300000F085
:1012E00025F830007830C46005700120FEBD3068FC
:1012F0000762300000F01AF8300078302021C16019
:101300000570DBE70020FEBDFFFFFDFFFFFFFEFFD6
:10131000FFFFFBFFFF7FFFFFFFEFFFFFFFFFEFFF81
:10132000FFFF9FFFFFFFF7FFFFFFFF0110B5EFF388
:101330001081012282F3108802681368134C1C404C
:10134000146081F31088EFF31081012282F310887A
:10135000026893680124A343936081F31088016EAF
:1013600001290BD1EFF31081012282F3108802686A
:1013700013681024A343136081F310882021802276
:10138000815000210166816610BD0000DFFEFFFF75
:10139000FEB506001BD0B04C3078C00719D58027A9
:1013A000BF0260680C21014004290BD078086168F5
:1013B0000C220A40082A47D16168C02252020A4022
:1013C000824241D12068074003D07068002800D1D4
:1013D0009FE1307880071FD5F827FF4360680C2114
:1013E00001400CD060680C21014008295ED1606882
:1013F000C0214902014080200002814256D120686C
:10140000800703D5F068012800D082E120680740FA
:101410003069C000384320603078000777D5022754
:10142000F0690028606A63D0012101436162FFF71F
:1014300081FB0500606A384069D1FFF77BFB401BE8
:101440000228F7D90320FEBD7368012B09D0B349E8
:10145000B34A002B09D0052B07D1216882000A432B
:10146000226021680843206005E020680240226075
:10147000206801402160706800280BD0FFF75AFBFC
:10148000050020683840A4D1FFF754FB401B6528B5
:10149000F7D3D7E7FFF74EFB05002068384098D018
:1014A000FFF748FB401B6528F7D3CBE7F06800281F
:1014B00020680ED0012101432160FFF73BFB0500AE
:1014C00020688007A2D4FFF735FB401B0228F7D91C
:1014D000B8E7012188432060FFF72CFB0500206856
:1014E000800799D5FFF726FB401B0228F7D9A9E70B
:1014F000012188436062FFF71DFB0500606A3840E8
:1015000005D0FFF717FB401B0228F7D99AE70427FD
:101510003068384062D000200190B806E16901408F
:1015200008D1E1690143E161E16908400090009858
:10153000012001907B480068C00512D479480068FA
:10154000A10D014377480160FFF7F4FA05007548E3
:101550000068C00505D4FFF7EDFA401B6528F6D3F7
:1015600070E7B068012808D0002801D1206A09E09E
:101570000528206A06D138432062206A01210143F0
:10158000216205E0012188432062206AB84320627D
:10159000A4480090B06800280CD0FFF7CBFA0500F3
:1015A000206A800713D4FFF7C5FA401B00998842D0
:1015B000F6D347E7FFF7BEFA0500206A800706D595
:1015C000FFF7B8FA401B00998842F6D33AE7019832
:1015D000002803D0E06994490140E1613078C006F9
:1015E0001DD57069F825ED43012837D1606B07439D
:1015F0006763606B012101436163FFF79BFA07009A
:10160000606B800705D4FFF795FAC01B0228F7D955
:1016100018E7606B0540B069C00028436063306A1A
:10162000002878D061680C220A40082A5CD0802704
:10163000BF048F490228206848D101402160FFF78C
:1016400079FA05002068384022D0FFF773FA401B72
:101650000228F7D9F6E600BF001002400421C94372
:101660008842606B02D101406163D2E70743676340
:10167000606B012188436063FFF75CFA0500606BD3
:101680008007CCD5FFF756FA401B0228F7D9D9E6D8
:10169000E06A0F218843F16A0143E162606875499D
:1016A0000140B06A0843716A0143616020687908AB
:1016B00001432160FFF73EFA0500206838402AD137
:1016C000FFF738FA401B0228F7D9BBE6014021603A
:1016D000FFF730FA0500206838401CD0FFF72AFADF
:1016E000401B0228F7D9ADE6012812D06068E16AF4
:1016F000C02252020240736A9A420AD10907090FB6
:10170000F26A914205D1F02189030140B06A814219
:1017100001D00120FEBD0020FEBD0000FFFFFBFF49
:10172000FFFFFEFF00700040F8B5040060D000919C
:1017300051480068C107C90F009881420CD24E4839
:10174000016801229143009A0A4302600068C107C0
:10175000C90F009881424BD12168484D02200142B7
:101760000CD0490704D56968E022D2000A436A60B8
:101770006968F0229143A2680A436A6001272168E0
:10178000394025D06168012902D12868800303E02F
:10179000022903D12868800103D429E02A68104077
:1017A00026D068680322904301436960FFF7C2F9BD
:1017B000060068680C21014060688000814207D003
:1017C000FFF7B8F9801B17498842F2D30320F2BD16
:1017D0002948009902683A4091420BD20168B94306
:1017E000009A0A430260006807400098874201D0CF
:1017F0000120F2BD2078400705D5686820490140E6
:10180000E0680843686000F011F81E496A68120633
:10181000120F895CC8401C490860002000F068F87D
:101820000020F2BD89130000FFFFFFEF30B517491C
:101830000C6817480C222240082A0CD10F2200BF46
:1018400015A3A50C15405D5D17A3896A0A40995C34
:1018500000F032F8684330BD0B4800680D490B4A70
:1018600012685205520F895CC840704700000000A2
:10187000FFFFFFFEFF7FC2FF00200240001002407A
:10188000FFF8FFFF441D00080C0000200410024078
:1018900000127A00941D00080203040506070809D7
:1018A0000A0B0C0D0E0F10100102030405060708A9
:1018B000090A0B0C0D0E0F10094214D088420FD3E9
:1018C0000122030C01D100041204002300185B4123
:1018D0008B4200D35B1A5241F8D3190010007047B5
:1018E00001000020704708B500F024F808BDFEE7AD
:1018F00038B505000D4CFA2080002178FFF7DCFF99
:1019000001000B480068FFF7D7FF00F036F8002809
:101910000AD1042D08D2002229000020C04300F083
:1019200028F8A560002032BD012032BD0000002053
:101930000C0000207047FEE710B5C20018231340CA
:10194000FF249C40E2438907090E9940030004D418
:1019500014489B089B00C01806E0134B0007000FBB
:10196000083880088000181803681A401143016085
:1019700010BD80B5FFF7E0FF01BD10B5401E80210E
:101980004904884201D3012010BD084C6060032146
:101990000020C043FFF7D0FF0020A0600721216096
:1019A00010BD000000E400E01CED00E010E000E0ED
:1019B000F0B58DB000F0FCF800F0C2F81422002160
:1019C00001A8FFF7BDF880210903574802680A43C0
:1019D000026002681140009100998021C9030268E9
:1019E0000A43026002681140009100998021890237
:1019F00002680A4302600268114000910099802148
:101A0000C90202680A430260006801400091009820
:101A10009025ED05002220212800FFF765F98020A0
:101A2000800101908420800302900024039401A986
:101A30003E48FFF78FF82020019001200290039488
:101A4000049401A92800FFF785F8394E3948306021
:101A5000822040007060B460C0208000F06034617B
:101A6000746180208000B0613020F0613462746263
:101A7000B4620720F0623463082070633000FEF720
:101A80001FFB002801D000F08AF82B4870669620D2
:101A90008001B066F466346774670C20B067F46741
:101AA0008020345030008430046044603000643062
:101AB000FFF754F9002801D000F071F80AA800BF20
:101AC00038A10A2200F09EF864230A220AA93000F5
:101AD0006430FFF779F919A76423012205A93000C2
:101AE0006430FFF7DEF90400642301226946300008
:101AF000FEF74EFC0500002C05D16423012205A948
:101B00003000FEF75FFB002D06D1642301226946F9
:101B100030006430FFF758F96423012239003000A7
:101B2000FEF750FBD8E70000141002400008004800
:101B30001000002000380040004400407300000006
:101B400038B590B03022002104A8FEF7F9FF10222A
:101B500000216846FEF7F4FF022404940120079058
:101B6000102008900C94C0020D9040010E900025AA
:101B70000F9504A8FFF70CFC002801D000F00FF827
:101B80000720009001940295039501216846FFF714
:101B9000CBFD002801D000F002F811B030BD72B6C4
:101BA000FEE7000048656C6C6F210A000000000031
:101BB00080B50648016810220A4302600020FFF742
:101BC00097FEFEF725FF002002BD00000020024026
:101BD00070B4103A03D378C9103A78C0FBD25307D7
:101BE00001D318C918C001D508C908C0D20704D349
:101BF0000B880380891C801C002A01D50B78037098
:101C000070BC70478B0701D18307E1D0124205D029
:101C10000B78491C0370401C521EF9D1704770B4F8
:101C20000123002413E00168001D194202D04D4633
:101C30006918491E0C60091D121F042AFAD20D00F2
:101C4000960701D50C80AD1C1A4000D02C7002689C
:101C5000001D002AE7D170BC704730B401220EE0AD
:101C60000368C31844680830144202D04D462C194A
:101C7000641E1D6825601B1D241D091FF9D1016804
:101C8000001D0029ECD130BC7047FEE710B50749B4
:101C900079441831064C7C44163404E0081D0A6867
:101CA000891888470100A142F8D110BD0800000042
:101CB000280000006BFFFFFFEC0000001000002078
:101CC0000000000097FFFFFF10000000B8000000B8
:101CD000000000200000000000F00DF8002801D0F6
:101CE000FFF7D4FF00BF00BF002000BF00BFFFF719
:101CF0005FFE00F002F80120704780B500F002F8A6
:101D000001BDFEE70746384600F002F8FBE7FEE7B4
:101D100080B500BF00BF024A11001820ABBEFBE730
:101D2000260002000548014603B4684680F309888E
:101D300000BF00BF00BF00BFFFF7CEFFA5EDF5FE5F
:101D400070470000000000000000000001020304D2
:101D5000060708090148804701480047411D00085F
:101D6000251D0008024841680278891841607047C3
:101D700000000020FEE7FEE77047704780B5FFF7E0
:101D8000F1FF01BD010000000000000004000000A0
:101D900000127A000000000001020304FEE7FEE7E3
:101DA000FEE7FEE7FEE7FEE7FEE7FEE7FEE7FEE70B
:101DB000FEE7FEE7FEE7FEE7FEE7FEE7FEE7FEE7FB
:081DC000FEE7FEE7FEE7FEE787
:0400000508001D25AD
:00000001FF
